{
  "_format": "hh3-artifact-1",
  "contractName": "SimpleSwap",
  "sourceName": "contracts/SimpleSwap.sol",
  "abi": [
    {
      "inputs": [
        {
          "internalType": "address",
          "name": "_factory",
          "type": "address"
        },
        {
          "internalType": "address",
          "name": "_weth",
          "type": "address"
        }
      ],
      "stateMutability": "nonpayable",
      "type": "constructor"
    },
    {
      "anonymous": false,
      "inputs": [
        {
          "indexed": true,
          "internalType": "address",
          "name": "user",
          "type": "address"
        },
        {
          "indexed": true,
          "internalType": "address",
          "name": "tokenIn",
          "type": "address"
        },
        {
          "indexed": true,
          "internalType": "address",
          "name": "tokenOut",
          "type": "address"
        },
        {
          "indexed": false,
          "internalType": "uint256",
          "name": "amountIn",
          "type": "uint256"
        },
        {
          "indexed": false,
          "internalType": "uint256",
          "name": "amountOut",
          "type": "uint256"
        }
      ],
      "name": "Swap",
      "type": "event"
    },
    {
      "inputs": [],
      "name": "WETH",
      "outputs": [
        {
          "internalType": "address",
          "name": "",
          "type": "address"
        }
      ],
      "stateMutability": "view",
      "type": "function"
    },
    {
      "inputs": [],
      "name": "factory",
      "outputs": [
        {
          "internalType": "address",
          "name": "",
          "type": "address"
        }
      ],
      "stateMutability": "view",
      "type": "function"
    },
    {
      "inputs": [
        {
          "internalType": "address",
          "name": "tokenIn",
          "type": "address"
        },
        {
          "internalType": "address",
          "name": "tokenOut",
          "type": "address"
        },
        {
          "internalType": "uint256",
          "name": "amountIn",
          "type": "uint256"
        }
      ],
      "name": "getAmountOut",
      "outputs": [
        {
          "internalType": "uint256",
          "name": "amountOut",
          "type": "uint256"
        }
      ],
      "stateMutability": "view",
      "type": "function"
    },
    {
      "inputs": [
        {
          "internalType": "address",
          "name": "tokenA",
          "type": "address"
        },
        {
          "internalType": "address",
          "name": "tokenB",
          "type": "address"
        }
      ],
      "name": "getPair",
      "outputs": [
        {
          "internalType": "address",
          "name": "",
          "type": "address"
        }
      ],
      "stateMutability": "view",
      "type": "function"
    },
    {
      "inputs": [
        {
          "internalType": "address",
          "name": "tokenA",
          "type": "address"
        },
        {
          "internalType": "address",
          "name": "tokenB",
          "type": "address"
        }
      ],
      "name": "pairExists",
      "outputs": [
        {
          "internalType": "bool",
          "name": "",
          "type": "bool"
        }
      ],
      "stateMutability": "view",
      "type": "function"
    },
    {
      "inputs": [
        {
          "internalType": "address",
          "name": "tokenIn",
          "type": "address"
        },
        {
          "internalType": "address",
          "name": "tokenOut",
          "type": "address"
        },
        {
          "internalType": "uint256",
          "name": "amountIn",
          "type": "uint256"
        },
        {
          "internalType": "uint256",
          "name": "minAmountOut",
          "type": "uint256"
        },
        {
          "internalType": "address",
          "name": "to",
          "type": "address"
        }
      ],
      "name": "swapExactTokensForTokens",
      "outputs": [
        {
          "internalType": "uint256",
          "name": "amountOut",
          "type": "uint256"
        }
      ],
      "stateMutability": "nonpayable",
      "type": "function"
    }
  ],
  "bytecode": "0x60c060405234801561000f575f5ffd5b506040516117c83803806117c8833981810160405281019061003191906101da565b5f73ffffffffffffffffffffffffffffffffffffffff168273ffffffffffffffffffffffffffffffffffffffff160361009f576040517f08c379a000000000000000000000000000000000000000000000000000000000815260040161009690610272565b60405180910390fd5b5f73ffffffffffffffffffffffffffffffffffffffff168173ffffffffffffffffffffffffffffffffffffffff160361010d576040517f08c379a0000000000000000000000000000000000000000000000000000000008152600401610104906102da565b60405180910390fd5b8173ffffffffffffffffffffffffffffffffffffffff1660808173ffffffffffffffffffffffffffffffffffffffff16815250508073ffffffffffffffffffffffffffffffffffffffff1660a08173ffffffffffffffffffffffffffffffffffffffff168152505050506102f8565b5f5ffd5b5f73ffffffffffffffffffffffffffffffffffffffff82169050919050565b5f6101a982610180565b9050919050565b6101b98161019f565b81146101c3575f5ffd5b50565b5f815190506101d4816101b0565b92915050565b5f5f604083850312156101f0576101ef61017c565b5b5f6101fd858286016101c6565b925050602061020e858286016101c6565b9150509250929050565b5f82825260208201905092915050565b7f496e76616c696420666163746f727900000000000000000000000000000000005f82015250565b5f61025c600f83610218565b915061026782610228565b602082019050919050565b5f6020820190508181035f83015261028981610250565b9050919050565b7f496e76616c6964205745544800000000000000000000000000000000000000005f82015250565b5f6102c4600c83610218565b91506102cf82610290565b602082019050919050565b5f6020820190508181035f8301526102f1816102b8565b9050919050565b60805160a0516114936103355f395f61072701525f8181610164015281816102860152818161047b0152818161074b015261077001526114935ff3fe608060405234801561000f575f5ffd5b5060043610610060575f3560e01c80634aa066521461006457806366a7bc4b146100945780636c08c57e146100c4578063ad5c4648146100f4578063c45a015514610112578063e6a4390514610130575b5f5ffd5b61007e60048036038101906100799190610c25565b610160565b60405161008b9190610c84565b60405180910390f35b6100ae60048036038101906100a99190610c9d565b610282565b6040516100bb9190610cf5565b60405180910390f35b6100de60048036038101906100d99190610d0e565b610359565b6040516100eb9190610c84565b60405180910390f35b6100fc610725565b6040516101099190610d94565b60405180910390f35b61011a610749565b6040516101279190610d94565b60405180910390f35b61014a60048036038101906101459190610c9d565b61076d565b6040516101579190610d94565b60405180910390f35b5f5f7f000000000000000000000000000000000000000000000000000000000000000073ffffffffffffffffffffffffffffffffffffffff1663e6a4390586866040518363ffffffff1660e01b81526004016101bd929190610dad565b602060405180830381865afa1580156101d8573d5f5f3e3d5ffd5b505050506040513d601f19601f820116820180604052508101906101fc9190610de8565b90505f73ffffffffffffffffffffffffffffffffffffffff168173ffffffffffffffffffffffffffffffffffffffff160361026c576040517f08c379a000000000000000000000000000000000000000000000000000000000815260040161026390610e6d565b60405180910390fd5b61027883868684610810565b9150509392505050565b5f5f7f000000000000000000000000000000000000000000000000000000000000000073ffffffffffffffffffffffffffffffffffffffff1663e6a4390585856040518363ffffffff1660e01b81526004016102df929190610dad565b602060405180830381865afa1580156102fa573d5f5f3e3d5ffd5b505050506040513d601f19601f8201168201806040525081019061031e9190610de8565b90505f73ffffffffffffffffffffffffffffffffffffffff168173ffffffffffffffffffffffffffffffffffffffff16141591505092915050565b5f8473ffffffffffffffffffffffffffffffffffffffff168673ffffffffffffffffffffffffffffffffffffffff16036103c8576040517f08c379a00000000000000000000000000000000000000000000000000000000081526004016103bf90610ed5565b60405180910390fd5b5f841161040a576040517f08c379a000000000000000000000000000000000000000000000000000000000815260040161040190610f3d565b60405180910390fd5b5f73ffffffffffffffffffffffffffffffffffffffff168273ffffffffffffffffffffffffffffffffffffffff1603610478576040517f08c379a000000000000000000000000000000000000000000000000000000000815260040161046f90610fa5565b60405180910390fd5b5f7f000000000000000000000000000000000000000000000000000000000000000073ffffffffffffffffffffffffffffffffffffffff1663e6a4390588886040518363ffffffff1660e01b81526004016104d4929190610dad565b602060405180830381865afa1580156104ef573d5f5f3e3d5ffd5b505050506040513d601f19601f820116820180604052508101906105139190610de8565b90505f73ffffffffffffffffffffffffffffffffffffffff168173ffffffffffffffffffffffffffffffffffffffff1603610583576040517f08c379a000000000000000000000000000000000000000000000000000000000815260040161057a90610e6d565b60405180910390fd5b8673ffffffffffffffffffffffffffffffffffffffff166323b872dd3383886040518463ffffffff1660e01b81526004016105c093929190610fc3565b6020604051808303815f875af11580156105dc573d5f5f3e3d5ffd5b505050506040513d601f19601f820116820180604052508101906106009190611022565b61063f576040517f08c379a000000000000000000000000000000000000000000000000000000000815260040161063690611097565b60405180910390fd5b61064b85888884610810565b915083821015610690576040517f08c379a0000000000000000000000000000000000000000000000000000000008152600401610687906110ff565b60405180910390fd5b61069d8787848487610a1f565b8573ffffffffffffffffffffffffffffffffffffffff168773ffffffffffffffffffffffffffffffffffffffff163373ffffffffffffffffffffffffffffffffffffffff167fcd3829a3813dc3cdd188fd3d01dcf3268c16be2fdd2dd21d0665418816e46062888660405161071392919061111d565b60405180910390a45095945050505050565b7f000000000000000000000000000000000000000000000000000000000000000081565b7f000000000000000000000000000000000000000000000000000000000000000081565b5f7f000000000000000000000000000000000000000000000000000000000000000073ffffffffffffffffffffffffffffffffffffffff1663e6a4390584846040518363ffffffff1660e01b81526004016107c9929190610dad565b602060405180830381865afa1580156107e4573d5f5f3e3d5ffd5b505050506040513d601f19601f820116820180604052508101906108089190610de8565b905092915050565b5f5f5f8373ffffffffffffffffffffffffffffffffffffffff16630902f1ac6040518163ffffffff1660e01b8152600401606060405180830381865afa15801561085c573d5f5f3e3d5ffd5b505050506040513d601f19601f8201168201806040525081019061088091906111c0565b50915091505f8473ffffffffffffffffffffffffffffffffffffffff16630dfe16816040518163ffffffff1660e01b8152600401602060405180830381865afa1580156108cf573d5f5f3e3d5ffd5b505050506040513d601f19601f820116820180604052508101906108f39190610de8565b90505f5f8273ffffffffffffffffffffffffffffffffffffffff168973ffffffffffffffffffffffffffffffffffffffff161461095157836dffffffffffffffffffffffffffff16856dffffffffffffffffffffffffffff16610974565b846dffffffffffffffffffffffffffff16846dffffffffffffffffffffffffffff165b915091505f8211801561098657505f81115b6109c5576040517f08c379a00000000000000000000000000000000000000000000000000000000081526004016109bc9061125a565b60405180910390fd5b5f6103e58b6109d491906112a5565b90505f82826109e391906112a5565b90505f826103e8866109f591906112a5565b6109ff91906112e6565b90508082610a0d9190611346565b98505050505050505050949350505050565b5f8273ffffffffffffffffffffffffffffffffffffffff16630dfe16816040518163ffffffff1660e01b8152600401602060405180830381865afa158015610a69573d5f5f3e3d5ffd5b505050506040513d601f19601f82011682018060405250810190610a8d9190610de8565b90505f5f8273ffffffffffffffffffffffffffffffffffffffff168873ffffffffffffffffffffffffffffffffffffffff1614610acb57855f610ace565b5f865b915091508473ffffffffffffffffffffffffffffffffffffffff1663022c0d9f8383875f67ffffffffffffffff811115610b0b57610b0a611376565b5b6040519080825280601f01601f191660200182016040528015610b3d5781602001600182028036833780820191505090505b506040518563ffffffff1660e01b8152600401610b5d9493929190611413565b5f604051808303815f87803b158015610b74575f5ffd5b505af1158015610b86573d5f5f3e3d5ffd5b505050505050505050505050565b5f5ffd5b5f73ffffffffffffffffffffffffffffffffffffffff82169050919050565b5f610bc182610b98565b9050919050565b610bd181610bb7565b8114610bdb575f5ffd5b50565b5f81359050610bec81610bc8565b92915050565b5f819050919050565b610c0481610bf2565b8114610c0e575f5ffd5b50565b5f81359050610c1f81610bfb565b92915050565b5f5f5f60608486031215610c3c57610c3b610b94565b5b5f610c4986828701610bde565b9350506020610c5a86828701610bde565b9250506040610c6b86828701610c11565b9150509250925092565b610c7e81610bf2565b82525050565b5f602082019050610c975f830184610c75565b92915050565b5f5f60408385031215610cb357610cb2610b94565b5b5f610cc085828601610bde565b9250506020610cd185828601610bde565b9150509250929050565b5f8115159050919050565b610cef81610cdb565b82525050565b5f602082019050610d085f830184610ce6565b92915050565b5f5f5f5f5f60a08688031215610d2757610d26610b94565b5b5f610d3488828901610bde565b9550506020610d4588828901610bde565b9450506040610d5688828901610c11565b9350506060610d6788828901610c11565b9250506080610d7888828901610bde565b9150509295509295909350565b610d8e81610bb7565b82525050565b5f602082019050610da75f830184610d85565b92915050565b5f604082019050610dc05f830185610d85565b610dcd6020830184610d85565b9392505050565b5f81519050610de281610bc8565b92915050565b5f60208284031215610dfd57610dfc610b94565b5b5f610e0a84828501610dd4565b91505092915050565b5f82825260208201905092915050565b7f50616972206e6f7420666f756e640000000000000000000000000000000000005f82015250565b5f610e57600e83610e13565b9150610e6282610e23565b602082019050919050565b5f6020820190508181035f830152610e8481610e4b565b9050919050565b7f53616d6520746f6b656e000000000000000000000000000000000000000000005f82015250565b5f610ebf600a83610e13565b9150610eca82610e8b565b602082019050919050565b5f6020820190508181035f830152610eec81610eb3565b9050919050565b7f5a65726f20616d6f756e740000000000000000000000000000000000000000005f82015250565b5f610f27600b83610e13565b9150610f3282610ef3565b602082019050919050565b5f6020820190508181035f830152610f5481610f1b565b9050919050565b7f496e76616c696420726563697069656e740000000000000000000000000000005f82015250565b5f610f8f601183610e13565b9150610f9a82610f5b565b602082019050919050565b5f6020820190508181035f830152610fbc81610f83565b9050919050565b5f606082019050610fd65f830186610d85565b610fe36020830185610d85565b610ff06040830184610c75565b949350505050565b61100181610cdb565b811461100b575f5ffd5b50565b5f8151905061101c81610ff8565b92915050565b5f6020828403121561103757611036610b94565b5b5f6110448482850161100e565b91505092915050565b7f5472616e73666572206661696c656400000000000000000000000000000000005f82015250565b5f611081600f83610e13565b915061108c8261104d565b602082019050919050565b5f6020820190508181035f8301526110ae81611075565b9050919050565b7f536c69707061676520746f6f20686967680000000000000000000000000000005f82015250565b5f6110e9601183610e13565b91506110f4826110b5565b602082019050919050565b5f6020820190508181035f830152611116816110dd565b9050919050565b5f6040820190506111305f830185610c75565b61113d6020830184610c75565b9392505050565b5f6dffffffffffffffffffffffffffff82169050919050565b61116681611144565b8114611170575f5ffd5b50565b5f815190506111818161115d565b92915050565b5f63ffffffff82169050919050565b61119f81611187565b81146111a9575f5ffd5b50565b5f815190506111ba81611196565b92915050565b5f5f5f606084860312156111d7576111d6610b94565b5b5f6111e486828701611173565b93505060206111f586828701611173565b9250506040611206868287016111ac565b9150509250925092565b7f496e73756666696369656e74206c6971756964697479000000000000000000005f82015250565b5f611244601683610e13565b915061124f82611210565b602082019050919050565b5f6020820190508181035f83015261127181611238565b9050919050565b7f4e487b71000000000000000000000000000000000000000000000000000000005f52601160045260245ffd5b5f6112af82610bf2565b91506112ba83610bf2565b92508282026112c881610bf2565b915082820484148315176112df576112de611278565b5b5092915050565b5f6112f082610bf2565b91506112fb83610bf2565b925082820190508082111561131357611312611278565b5b92915050565b7f4e487b71000000000000000000000000000000000000000000000000000000005f52601260045260245ffd5b5f61135082610bf2565b915061135b83610bf2565b92508261136b5761136a611319565b5b828204905092915050565b7f4e487b71000000000000000000000000000000000000000000000000000000005f52604160045260245ffd5b5f81519050919050565b5f82825260208201905092915050565b8281835e5f83830152505050565b5f601f19601f8301169050919050565b5f6113e5826113a3565b6113ef81856113ad565b93506113ff8185602086016113bd565b611408816113cb565b840191505092915050565b5f6080820190506114265f830187610c75565b6114336020830186610c75565b6114406040830185610d85565b818103606083015261145281846113db565b90509594505050505056fea2646970667358221220500b5c816ad7160209128d21897f3351158b76a4d1aa176f2593d0d95dd1756764736f6c634300081c0033",
  "linkReferences": {},
  "deployedLinkReferences": {},
  "immutableReferences": {
    "82": [
      {
        "length": 32,
        "start": 356
      },
      {
        "length": 32,
        "start": 646
      },
      {
        "length": 32,
        "start": 1147
      },
      {
        "length": 32,
        "start": 1867
      },
      {
        "length": 32,
        "start": 1904
      }
    ],
    "84": [
      {
        "length": 32,
        "start": 1831
      }
    ]
  },
  "inputSourceName": "project/contracts/SimpleSwap.sol",
  "buildInfoId": "solc-0_8_28-877415b3ec2a160fbe4c6f7b07dd4d889ebbdc67"
}