{
  "_format": "hh3-artifact-1",
  "contractName": "MultiRouteSwapper",
  "sourceName": "contracts/MultiRouteSwapper.sol",
  "abi": [
    {
      "anonymous": false,
      "inputs": [
        {
          "indexed": true,
          "internalType": "address",
          "name": "user",
          "type": "address"
        },
        {
          "indexed": true,
          "internalType": "address",
          "name": "tokenIn",
          "type": "address"
        },
        {
          "indexed": true,
          "internalType": "address",
          "name": "tokenOut",
          "type": "address"
        },
        {
          "indexed": false,
          "internalType": "uint256",
          "name": "amountIn",
          "type": "uint256"
        },
        {
          "indexed": false,
          "internalType": "uint256",
          "name": "amountOut",
          "type": "uint256"
        }
      ],
      "name": "MultiRouteSwap",
      "type": "event"
    },
    {
      "inputs": [
        {
          "components": [
            {
              "internalType": "address",
              "name": "router",
              "type": "address"
            },
            {
              "internalType": "address[]",
              "name": "path",
              "type": "address[]"
            }
          ],
          "internalType": "struct MultiRouteSwapper.RouteHop[]",
          "name": "hops",
          "type": "tuple[]"
        },
        {
          "internalType": "uint256",
          "name": "amountIn",
          "type": "uint256"
        },
        {
          "internalType": "uint256",
          "name": "minAmountOut",
          "type": "uint256"
        },
        {
          "internalType": "address",
          "name": "recipient",
          "type": "address"
        },
        {
          "internalType": "uint256",
          "name": "deadline",
          "type": "uint256"
        }
      ],
      "name": "swapExactTokensForTokens",
      "outputs": [
        {
          "internalType": "uint256",
          "name": "amountOut",
          "type": "uint256"
        }
      ],
      "stateMutability": "nonpayable",
      "type": "function"
    }
  ],
  "bytecode": "0x608060405260015f553480156012575f5ffd5b50610c5c806100205f395ff3fe608060405234801561000f575f5ffd5b5060043610610029575f3560e01c8063c812ad391461002d575b5f5ffd5b61004061003b366004610947565b610052565b60405190815260200160405180910390f35b5f5f546001146100925760405162461bcd60e51b81526020600482015260066024820152651313d0d2d15160d21b60448201526064015b60405180910390fd5b60025f55856100cd5760405162461bcd60e51b81526020600482015260076024820152664e4f5f484f505360c81b6044820152606401610089565b6001600160a01b0383166101135760405162461bcd60e51b815260206004820152600d60248201526c10905117d49150d25412515395609a1b6044820152606401610089565b428210156101555760405162461bcd60e51b815260206004820152600f60248201526e111150511312539157d41054d4d151608a1b6044820152606401610089565b5f87875f818110610168576101686109e2565b905060200281019061017a91906109f6565b610188906020810190610a14565b5f818110610198576101986109e2565b90506020020160208101906101ad9190610a61565b90505f88886101bd600182610a81565b8181106101cc576101cc6109e2565b90506020028101906101de91906109f6565b6101ec906020810190610a14565b60018b8b6101fa8382610a81565b818110610209576102096109e2565b905060200281019061021b91906109f6565b610229906020810190610a14565b610234929150610a81565b818110610243576102436109e2565b90506020020160208101906102589190610a61565b90506001600160a01b0382161580159061027a57506001600160a01b03811615155b6102b15760405162461bcd60e51b81526020600482015260086024820152670848288bea082a8960c31b6044820152606401610089565b6102bb82886105dc565b865f5b8981101561052e57368b8b838181106102d9576102d96109e2565b90506020028101906102eb91906109f6565b90505f6102fb6020830183610a61565b6001600160a01b03160361033e5760405162461bcd60e51b815260206004820152600a6024820152692120a22fa927aaaa22a960b11b6044820152606401610089565b600261034d6020830183610a14565b9050101561038a5760405162461bcd60e51b815260206004820152600a6024820152690a6909ea4a8bea082a8960b31b6044820152606401610089565b5f6103986020830183610a14565b5f8181106103a8576103a86109e2565b90506020020160208101906103bd9190610a61565b6001600160a01b0316036103ff5760405162461bcd60e51b815260206004820152600960248201526810905117d25394155560ba1b6044820152606401610089565b61044761040f6020830183610a14565b5f81811061041f5761041f6109e2565b90506020020160208101906104349190610a61565b6104416020840184610a61565b85610693565b5f61045360018d610a81565b831461045f575f610461565b895b90505f6104716020840184610a61565b6001600160a01b03166338ed1739868461048e6020880188610a14565b308f6040518763ffffffff1660e01b81526004016104b196959493929190610aa6565b5f604051808303815f875af11580156104cc573d5f5f3e3d5ffd5b505050506040513d5f823e601f3d908101601f191682016040526104f39190810190610b28565b905080600182516105049190610a81565b81518110610514576105146109e2565b6020026020010151945050505080806001019150506102be565b50868110156105755760405162461bcd60e51b8152602060048201526013602482015272125394d551919250d251539517d3d555141555606a1b6044820152606401610089565b610580828783610877565b60408051898152602081018390526001600160a01b03808516929086169133917f3c12e63576f8b0081bc2a4d0788543d8d1d3798bf70141b136d67435b0dad64e910160405180910390a460015f559998505050505050505050565b6040516323b872dd60e01b8152336004820152306024820152604481018290526001600160a01b038316906323b872dd906064016020604051808303815f875af115801561062c573d5f5f3e3d5ffd5b505050506040513d601f19601f820116820180604052508101906106509190610bf0565b61068f5760405162461bcd60e51b815260206004820152601060248201526f1514905394d1915497d25397d190525360821b6044820152606401610089565b5050565b604051636eb1769f60e11b81523060048201526001600160a01b03838116602483015284915f9183169063dd62ed3e90604401602060405180830381865afa1580156106e1573d5f5f3e3d5ffd5b505050506040513d601f19601f820116820180604052508101906107059190610c0f565b9050828110156108705780156107c55760405163095ea7b360e01b81526001600160a01b0385811660048301525f602483015283169063095ea7b3906044016020604051808303815f875af1158015610760573d5f5f3e3d5ffd5b505050506040513d601f19601f820116820180604052508101906107849190610bf0565b6107c55760405162461bcd60e51b81526020600482015260126024820152711054141493d59157d49154d15517d190525360721b6044820152606401610089565b60405163095ea7b360e01b81526001600160a01b0385811660048301525f19602483015283169063095ea7b3906044016020604051808303815f875af1158015610811573d5f5f3e3d5ffd5b505050506040513d601f19601f820116820180604052508101906108359190610bf0565b6108705760405162461bcd60e51b815260206004820152600c60248201526b1054141493d59157d190525360a21b6044820152606401610089565b5050505050565b60405163a9059cbb60e01b81526001600160a01b0383811660048301526024820183905284169063a9059cbb906044016020604051808303815f875af11580156108c3573d5f5f3e3d5ffd5b505050506040513d601f19601f820116820180604052508101906108e79190610bf0565b6109275760405162461bcd60e51b81526020600482015260116024820152701514905394d1915497d3d55517d1905253607a1b6044820152606401610089565b505050565b80356001600160a01b0381168114610942575f5ffd5b919050565b5f5f5f5f5f5f60a0878903121561095c575f5ffd5b863567ffffffffffffffff811115610972575f5ffd5b8701601f81018913610982575f5ffd5b803567ffffffffffffffff811115610998575f5ffd5b8960208260051b84010111156109ac575f5ffd5b6020918201975095508701359350604087013592506109cd6060880161092c565b95989497509295919493608090920135925050565b634e487b7160e01b5f52603260045260245ffd5b5f8235603e19833603018112610a0a575f5ffd5b9190910192915050565b5f5f8335601e19843603018112610a29575f5ffd5b83018035915067ffffffffffffffff821115610a43575f5ffd5b6020019150600581901b3603821315610a5a575f5ffd5b9250929050565b5f60208284031215610a71575f5ffd5b610a7a8261092c565b9392505050565b81810381811115610aa057634e487b7160e01b5f52601160045260245ffd5b92915050565b8681526020810186905260a06040820181905281018490525f8560c08301825b87811015610af4576001600160a01b03610adf8461092c565b16825260209283019290910190600101610ac6565b506001600160a01b03959095166060840152505060800152949350505050565b634e487b7160e01b5f52604160045260245ffd5b5f60208284031215610b38575f5ffd5b815167ffffffffffffffff811115610b4e575f5ffd5b8201601f81018413610b5e575f5ffd5b805167ffffffffffffffff811115610b7857610b78610b14565b8060051b604051601f19603f830116810181811067ffffffffffffffff82111715610ba557610ba5610b14565b604052918252602081840181019290810187841115610bc2575f5ffd5b6020850194505b83851015610be557845180825260209586019590935001610bc9565b509695505050505050565b5f60208284031215610c00575f5ffd5b81518015158114610a7a575f5ffd5b5f60208284031215610c1f575f5ffd5b505191905056fea2646970667358221220c11613b4d03906203900249019ad4c0fd7f84f954e951414efd7fe69d531fe8364736f6c634300081c0033",
  "linkReferences": {},
  "deployedLinkReferences": {},
  "immutableReferences": {},
  "inputSourceName": "project/contracts/MultiRouteSwapper.sol",
  "buildInfoId": "solc-0_8_28-3c5cea70fb7c557047bdc3c089896f39ad428bff"
}