{"project/contracts/MultiRouteSwapper.sol":{"MultiRouteSwapper":{"abi":[{"anonymous":false,"inputs":[{"indexed":true,"internalType":"address","name":"user","type":"address"},{"indexed":true,"internalType":"address","name":"tokenIn","type":"address"},{"indexed":true,"internalType":"address","name":"tokenOut","type":"address"},{"indexed":false,"internalType":"uint256","name":"amountIn","type":"uint256"},{"indexed":false,"internalType":"uint256","name":"amountOut","type":"uint256"}],"name":"MultiRouteSwap","type":"event"},{"inputs":[{"components":[{"internalType":"address","name":"router","type":"address"},{"internalType":"address[]","name":"path","type":"address[]"}],"internalType":"struct MultiRouteSwapper.RouteHop[]","name":"hops","type":"tuple[]"},{"internalType":"uint256","name":"amountIn","type":"uint256"},{"internalType":"uint256","name":"minAmountOut","type":"uint256"},{"internalType":"address","name":"recipient","type":"address"},{"internalType":"uint256","name":"deadline","type":"uint256"}],"name":"swapExactTokensForTokens","outputs":[{"internalType":"uint256","name":"amountOut","type":"uint256"}],"stateMutability":"nonpayable","type":"function"}],"evm":{"bytecode":{"linkReferences":{},"object":"608060405260015f553480156012575f5ffd5b506117ff806100205f395ff3fe608060405234801561000f575f5ffd5b5060043610610029575f3560e01c8063c812ad391461002d575b5f5ffd5b61004760048036038101906100429190610c00565b61005d565b6040516100549190610ca5565b60405180910390f35b5f60015f54146100a2576040517f08c379a000000000000000000000000000000000000000000000000000000000815260040161009990610d18565b60405180910390fd5b60025f819055505f87879050116100ee576040517f08c379a00000000000000000000000000000000000000000000000000000000081526004016100e590610d80565b60405180910390fd5b5f73ffffffffffffffffffffffffffffffffffffffff168373ffffffffffffffffffffffffffffffffffffffff160361015c576040517f08c379a000000000000000000000000000000000000000000000000000000000815260040161015390610de8565b60405180910390fd5b4282101561019f576040517f08c379a000000000000000000000000000000000000000000000000000000000815260040161019690610e50565b60405180910390fd5b5f87875f8181106101b3576101b2610e6e565b5b90506020028101906101c59190610ea7565b80602001906101d49190610ece565b5f8181106101e5576101e4610e6e565b5b90506020020160208101906101fa9190610f30565b90505f888860018b8b905061020f9190610f88565b81811061021f5761021e610e6e565b5b90506020028101906102319190610ea7565b80602001906102409190610ece565b60018b8b60018e8e90506102549190610f88565b81811061026457610263610e6e565b5b90506020028101906102769190610ea7565b80602001906102859190610ece565b90506102919190610f88565b8181106102a1576102a0610e6e565b5b90506020020160208101906102b69190610f30565b90505f73ffffffffffffffffffffffffffffffffffffffff168273ffffffffffffffffffffffffffffffffffffffff161415801561032057505f73ffffffffffffffffffffffffffffffffffffffff168173ffffffffffffffffffffffffffffffffffffffff1614155b61035f576040517f08c379a000000000000000000000000000000000000000000000000000000000815260040161035690611005565b60405180910390fd5b6103698288610754565b5f8790505f5f90505b8a8a905081101561067057368b8b8381811061039157610390610e6e565b5b90506020028101906103a39190610ea7565b90505f73ffffffffffffffffffffffffffffffffffffffff16815f0160208101906103ce9190610f30565b73ffffffffffffffffffffffffffffffffffffffff1603610424576040517f08c379a000000000000000000000000000000000000000000000000000000000815260040161041b9061106d565b60405180910390fd5b60028180602001906104369190610ece565b90501015610479576040517f08c379a0000000000000000000000000000000000000000000000000000000008152600401610470906110d5565b60405180910390fd5b5f73ffffffffffffffffffffffffffffffffffffffff168180602001906104a09190610ece565b5f8181106104b1576104b0610e6e565b5b90506020020160208101906104c69190610f30565b73ffffffffffffffffffffffffffffffffffffffff160361051c576040517f08c379a00000000000000000000000000000000000000000000000000000000081526004016105139061113d565b60405180910390fd5b61056d81806020019061052f9190610ece565b5f8181106105405761053f610e6e565b5b90506020020160208101906105559190610f30565b825f0160208101906105679190610f30565b85610814565b5f60018d8d905061057e9190610f88565b831461058a575f61058c565b895b90505f825f0160208101906105a19190610f30565b73ffffffffffffffffffffffffffffffffffffffff166338ed173986848680602001906105ce9190610ece565b308f6040518763ffffffff1660e01b81526004016105f196959493929190611226565b5f604051808303815f875af115801561060c573d5f5f3e3d5ffd5b505050506040513d5f823e3d601f19601f8201168201806040525081019061063491906113dc565b905080600182516106459190610f88565b8151811061065657610655610e6e565b5b602002602001015194505050508080600101915050610372565b50868110156106b4576040517f08c379a00000000000000000000000000000000000000000000000000000000081526004016106ab9061146d565b60405180910390fd5b6106bf828783610a42565b8173ffffffffffffffffffffffffffffffffffffffff168373ffffffffffffffffffffffffffffffffffffffff163373ffffffffffffffffffffffffffffffffffffffff167f3c12e63576f8b0081bc2a4d0788543d8d1d3798bf70141b136d67435b0dad64e8b8560405161073592919061148b565b60405180910390a480935050505060015f819055509695505050505050565b8173ffffffffffffffffffffffffffffffffffffffff166323b872dd3330846040518463ffffffff1660e01b8152600401610791939291906114b2565b6020604051808303815f875af11580156107ad573d5f5f3e3d5ffd5b505050506040513d601f19601f820116820180604052508101906107d1919061151c565b610810576040517f08c379a000000000000000000000000000000000000000000000000000000000815260040161080790611591565b60405180910390fd5b5050565b5f8390505f8173ffffffffffffffffffffffffffffffffffffffff1663dd62ed3e30866040518363ffffffff1660e01b81526004016108549291906115af565b602060405180830381865afa15801561086f573d5f5f3e3d5ffd5b505050506040513d601f19601f8201168201806040525081019061089391906115d6565b905082811015610a3b575f811115610960578173ffffffffffffffffffffffffffffffffffffffff1663095ea7b3855f6040518363ffffffff1660e01b81526004016108e0929190611643565b6020604051808303815f875af11580156108fc573d5f5f3e3d5ffd5b505050506040513d601f19601f82011682018060405250810190610920919061151c565b61095f576040517f08c379a0000000000000000000000000000000000000000000000000000000008152600401610956906116b4565b60405180910390fd5b5b8173ffffffffffffffffffffffffffffffffffffffff1663095ea7b3857fffffffffffffffffffffffffffffffffffffffffffffffffffffffffffffffff6040518363ffffffff1660e01b81526004016109bb9291906116d2565b6020604051808303815f875af11580156109d7573d5f5f3e3d5ffd5b505050506040513d601f19601f820116820180604052508101906109fb919061151c565b610a3a576040517f08c379a0000000000000000000000000000000000000000000000000000000008152600401610a3190611743565b60405180910390fd5b5b5050505050565b8273ffffffffffffffffffffffffffffffffffffffff1663a9059cbb83836040518363ffffffff1660e01b8152600401610a7d9291906116d2565b6020604051808303815f875af1158015610a99573d5f5f3e3d5ffd5b505050506040513d601f19601f82011682018060405250810190610abd919061151c565b610afc576040517f08c379a0000000000000000000000000000000000000000000000000000000008152600401610af3906117ab565b60405180910390fd5b505050565b5f604051905090565b5f5ffd5b5f5ffd5b5f5ffd5b5f5ffd5b5f5ffd5b5f5f83601f840112610b3357610b32610b12565b5b8235905067ffffffffffffffff811115610b5057610b4f610b16565b5b602083019150836020820283011115610b6c57610b6b610b1a565b5b9250929050565b5f819050919050565b610b8581610b73565b8114610b8f575f5ffd5b50565b5f81359050610ba081610b7c565b92915050565b5f73ffffffffffffffffffffffffffffffffffffffff82169050919050565b5f610bcf82610ba6565b9050919050565b610bdf81610bc5565b8114610be9575f5ffd5b50565b5f81359050610bfa81610bd6565b92915050565b5f5f5f5f5f5f60a08789031215610c1a57610c19610b0a565b5b5f87013567ffffffffffffffff811115610c3757610c36610b0e565b5b610c4389828a01610b1e565b96509650506020610c5689828a01610b92565b9450506040610c6789828a01610b92565b9350506060610c7889828a01610bec565b9250506080610c8989828a01610b92565b9150509295509295509295565b610c9f81610b73565b82525050565b5f602082019050610cb85f830184610c96565b92915050565b5f82825260208201905092915050565b7f4c4f434b454400000000000000000000000000000000000000000000000000005f82015250565b5f610d02600683610cbe565b9150610d0d82610cce565b602082019050919050565b5f6020820190508181035f830152610d2f81610cf6565b9050919050565b7f4e4f5f484f5053000000000000000000000000000000000000000000000000005f82015250565b5f610d6a600783610cbe565b9150610d7582610d36565b602082019050919050565b5f6020820190508181035f830152610d9781610d5e565b9050919050565b7f4241445f524543495049454e54000000000000000000000000000000000000005f82015250565b5f610dd2600d83610cbe565b9150610ddd82610d9e565b602082019050919050565b5f6020820190508181035f830152610dff81610dc6565b9050919050565b7f444541444c494e455f50415353454400000000000000000000000000000000005f82015250565b5f610e3a600f83610cbe565b9150610e4582610e06565b602082019050919050565b5f6020820190508181035f830152610e6781610e2e565b9050919050565b7f4e487b71000000000000000000000000000000000000000000000000000000005f52603260045260245ffd5b5f5ffd5b5f5ffd5b5f5ffd5b5f82356001604003833603038112610ec257610ec1610e9b565b5b80830191505092915050565b5f5f83356001602003843603038112610eea57610ee9610e9b565b5b80840192508235915067ffffffffffffffff821115610f0c57610f0b610e9f565b5b602083019250602082023603831315610f2857610f27610ea3565b5b509250929050565b5f60208284031215610f4557610f44610b0a565b5b5f610f5284828501610bec565b91505092915050565b7f4e487b71000000000000000000000000000000000000000000000000000000005f52601160045260245ffd5b5f610f9282610b73565b9150610f9d83610b73565b9250828203905081811115610fb557610fb4610f5b565b5b92915050565b7f4241445f504154480000000000000000000000000000000000000000000000005f82015250565b5f610fef600883610cbe565b9150610ffa82610fbb565b602082019050919050565b5f6020820190508181035f83015261101c81610fe3565b9050919050565b7f4241445f524f55544552000000000000000000000000000000000000000000005f82015250565b5f611057600a83610cbe565b915061106282611023565b602082019050919050565b5f6020820190508181035f8301526110848161104b565b9050919050565b7f53484f52545f50415448000000000000000000000000000000000000000000005f82015250565b5f6110bf600a83610cbe565b91506110ca8261108b565b602082019050919050565b5f6020820190508181035f8301526110ec816110b3565b9050919050565b7f4241445f494e50555400000000000000000000000000000000000000000000005f82015250565b5f611127600983610cbe565b9150611132826110f3565b602082019050919050565b5f6020820190508181035f8301526111548161111b565b9050919050565b5f82825260208201905092915050565b5f819050919050565b61117d81610bc5565b82525050565b5f61118e8383611174565b60208301905092915050565b5f6111a86020840184610bec565b905092915050565b5f602082019050919050565b5f6111c7838561115b565b93506111d28261116b565b805f5b8581101561120a576111e7828461119a565b6111f18882611183565b97506111fc836111b0565b9250506001810190506111d5565b5085925050509392505050565b61122081610bc5565b82525050565b5f60a0820190506112395f830189610c96565b6112466020830188610c96565b81810360408301526112598186886111bc565b90506112686060830185611217565b6112756080830184610c96565b979650505050505050565b5f601f19601f8301169050919050565b7f4e487b71000000000000000000000000000000000000000000000000000000005f52604160045260245ffd5b6112c682611280565b810181811067ffffffffffffffff821117156112e5576112e4611290565b5b80604052505050565b5f6112f7610b01565b905061130382826112bd565b919050565b5f67ffffffffffffffff82111561132257611321611290565b5b602082029050602081019050919050565b5f8151905061134181610b7c565b92915050565b5f61135961135484611308565b6112ee565b9050808382526020820190506020840283018581111561137c5761137b610b1a565b5b835b818110156113a557806113918882611333565b84526020840193505060208101905061137e565b5050509392505050565b5f82601f8301126113c3576113c2610b12565b5b81516113d3848260208601611347565b91505092915050565b5f602082840312156113f1576113f0610b0a565b5b5f82015167ffffffffffffffff81111561140e5761140d610b0e565b5b61141a848285016113af565b91505092915050565b7f494e53554646494349454e545f4f5554505554000000000000000000000000005f82015250565b5f611457601383610cbe565b915061146282611423565b602082019050919050565b5f6020820190508181035f8301526114848161144b565b9050919050565b5f60408201905061149e5f830185610c96565b6114ab6020830184610c96565b9392505050565b5f6060820190506114c55f830186611217565b6114d26020830185611217565b6114df6040830184610c96565b949350505050565b5f8115159050919050565b6114fb816114e7565b8114611505575f5ffd5b50565b5f81519050611516816114f2565b92915050565b5f6020828403121561153157611530610b0a565b5b5f61153e84828501611508565b91505092915050565b7f5452414e534645525f494e5f4641494c000000000000000000000000000000005f82015250565b5f61157b601083610cbe565b915061158682611547565b602082019050919050565b5f6020820190508181035f8301526115a88161156f565b9050919050565b5f6040820190506115c25f830185611217565b6115cf6020830184611217565b9392505050565b5f602082840312156115eb576115ea610b0a565b5b5f6115f884828501611333565b91505092915050565b5f819050919050565b5f819050919050565b5f61162d61162861162384611601565b61160a565b610b73565b9050919050565b61163d81611613565b82525050565b5f6040820190506116565f830185611217565b6116636020830184611634565b9392505050565b7f415050524f56455f52455345545f4641494c00000000000000000000000000005f82015250565b5f61169e601283610cbe565b91506116a98261166a565b602082019050919050565b5f6020820190508181035f8301526116cb81611692565b9050919050565b5f6040820190506116e55f830185611217565b6116f26020830184610c96565b9392505050565b7f415050524f56455f4641494c00000000000000000000000000000000000000005f82015250565b5f61172d600c83610cbe565b9150611738826116f9565b602082019050919050565b5f6020820190508181035f83015261175a81611721565b9050919050565b7f5452414e534645525f4f55545f4641494c0000000000000000000000000000005f82015250565b5f611795601183610cbe565b91506117a082611761565b602082019050919050565b5f6020820190508181035f8301526117c281611789565b905091905056fea2646970667358221220055927b16606ce36628ccea64baab82af2a424e4a6ddf1edbcb05dd3a6fda0ab64736f6c634300081c0033","opcodes":"PUSH1 0x80 PUSH1 0x40 MSTORE PUSH1 0x1 PUSH0 SSTORE CALLVALUE DUP1 ISZERO PUSH1 0x12 JUMPI PUSH0 PUSH0 REVERT JUMPDEST POP PUSH2 0x17FF DUP1 PUSH2 0x20 PUSH0 CODECOPY PUSH0 RETURN INVALID PUSH1 0x80 PUSH1 0x40 MSTORE CALLVALUE DUP1 ISZERO PUSH2 0xF JUMPI PUSH0 PUSH0 REVERT JUMPDEST POP PUSH1 0x4 CALLDATASIZE LT PUSH2 0x29 JUMPI PUSH0 CALLDATALOAD PUSH1 0xE0 SHR DUP1 PUSH4 0xC812AD39 EQ PUSH2 0x2D JUMPI JUMPDEST PUSH0 PUSH0 REVERT JUMPDEST PUSH2 0x47 PUSH1 0x4 DUP1 CALLDATASIZE SUB DUP2 ADD SWAP1 PUSH2 0x42 SWAP2 SWAP1 PUSH2 0xC00 JUMP JUMPDEST PUSH2 0x5D JUMP JUMPDEST PUSH1 0x40 MLOAD PUSH2 0x54 SWAP2 SWAP1 PUSH2 0xCA5 JUMP JUMPDEST PUSH1 0x40 MLOAD DUP1 SWAP2 SUB SWAP1 RETURN JUMPDEST PUSH0 PUSH1 0x1 PUSH0 SLOAD EQ PUSH2 0xA2 JUMPI PUSH1 0x40 MLOAD PUSH32 0x8C379A000000000000000000000000000000000000000000000000000000000 DUP2 MSTORE PUSH1 0x4 ADD PUSH2 0x99 SWAP1 PUSH2 0xD18 JUMP JUMPDEST PUSH1 0x40 MLOAD DUP1 SWAP2 SUB SWAP1 REVERT JUMPDEST PUSH1 0x2 PUSH0 DUP2 SWAP1 SSTORE POP PUSH0 DUP8 DUP8 SWAP1 POP GT PUSH2 0xEE JUMPI PUSH1 0x40 MLOAD PUSH32 0x8C379A000000000000000000000000000000000000000000000000000000000 DUP2 MSTORE PUSH1 0x4 ADD PUSH2 0xE5 SWAP1 PUSH2 0xD80 JUMP JUMPDEST PUSH1 0x40 MLOAD DUP1 SWAP2 SUB SWAP1 REVERT JUMPDEST PUSH0 PUSH20 0xFFFFFFFFFFFFFFFFFFFFFFFFFFFFFFFFFFFFFFFF AND DUP4 PUSH20 0xFFFFFFFFFFFFFFFFFFFFFFFFFFFFFFFFFFFFFFFF AND SUB PUSH2 0x15C JUMPI PUSH1 0x40 MLOAD PUSH32 0x8C379A000000000000000000000000000000000000000000000000000000000 DUP2 MSTORE PUSH1 0x4 ADD PUSH2 0x153 SWAP1 PUSH2 0xDE8 JUMP JUMPDEST PUSH1 0x40 MLOAD DUP1 SWAP2 SUB SWAP1 REVERT JUMPDEST TIMESTAMP DUP3 LT ISZERO PUSH2 0x19F JUMPI PUSH1 0x40 MLOAD PUSH32 0x8C379A000000000000000000000000000000000000000000000000000000000 DUP2 MSTORE PUSH1 0x4 ADD PUSH2 0x196 SWAP1 PUSH2 0xE50 JUMP JUMPDEST PUSH1 0x40 MLOAD DUP1 SWAP2 SUB SWAP1 REVERT JUMPDEST PUSH0 DUP8 DUP8 PUSH0 DUP2 DUP2 LT PUSH2 0x1B3 JUMPI PUSH2 0x1B2 PUSH2 0xE6E JUMP JUMPDEST JUMPDEST SWAP1 POP PUSH1 0x20 MUL DUP2 ADD SWAP1 PUSH2 0x1C5 SWAP2 SWAP1 PUSH2 0xEA7 JUMP JUMPDEST DUP1 PUSH1 0x20 ADD SWAP1 PUSH2 0x1D4 SWAP2 SWAP1 PUSH2 0xECE JUMP JUMPDEST PUSH0 DUP2 DUP2 LT PUSH2 0x1E5 JUMPI PUSH2 0x1E4 PUSH2 0xE6E JUMP JUMPDEST JUMPDEST SWAP1 POP PUSH1 0x20 MUL ADD PUSH1 0x20 DUP2 ADD SWAP1 PUSH2 0x1FA SWAP2 SWAP1 PUSH2 0xF30 JUMP JUMPDEST SWAP1 POP PUSH0 DUP9 DUP9 PUSH1 0x1 DUP12 DUP12 SWAP1 POP PUSH2 0x20F SWAP2 SWAP1 PUSH2 0xF88 JUMP JUMPDEST DUP2 DUP2 LT PUSH2 0x21F JUMPI PUSH2 0x21E PUSH2 0xE6E JUMP JUMPDEST JUMPDEST SWAP1 POP PUSH1 0x20 MUL DUP2 ADD SWAP1 PUSH2 0x231 SWAP2 SWAP1 PUSH2 0xEA7 JUMP JUMPDEST DUP1 PUSH1 0x20 ADD SWAP1 PUSH2 0x240 SWAP2 SWAP1 PUSH2 0xECE JUMP JUMPDEST PUSH1 0x1 DUP12 DUP12 PUSH1 0x1 DUP15 DUP15 SWAP1 POP PUSH2 0x254 SWAP2 SWAP1 PUSH2 0xF88 JUMP JUMPDEST DUP2 DUP2 LT PUSH2 0x264 JUMPI PUSH2 0x263 PUSH2 0xE6E JUMP JUMPDEST JUMPDEST SWAP1 POP PUSH1 0x20 MUL DUP2 ADD SWAP1 PUSH2 0x276 SWAP2 SWAP1 PUSH2 0xEA7 JUMP JUMPDEST DUP1 PUSH1 0x20 ADD SWAP1 PUSH2 0x285 SWAP2 SWAP1 PUSH2 0xECE JUMP JUMPDEST SWAP1 POP PUSH2 0x291 SWAP2 SWAP1 PUSH2 0xF88 JUMP JUMPDEST DUP2 DUP2 LT PUSH2 0x2A1 JUMPI PUSH2 0x2A0 PUSH2 0xE6E JUMP JUMPDEST JUMPDEST SWAP1 POP PUSH1 0x20 MUL ADD PUSH1 0x20 DUP2 ADD SWAP1 PUSH2 0x2B6 SWAP2 SWAP1 PUSH2 0xF30 JUMP JUMPDEST SWAP1 POP PUSH0 PUSH20 0xFFFFFFFFFFFFFFFFFFFFFFFFFFFFFFFFFFFFFFFF AND DUP3 PUSH20 0xFFFFFFFFFFFFFFFFFFFFFFFFFFFFFFFFFFFFFFFF AND EQ ISZERO DUP1 ISZERO PUSH2 0x320 JUMPI POP PUSH0 PUSH20 0xFFFFFFFFFFFFFFFFFFFFFFFFFFFFFFFFFFFFFFFF AND DUP2 PUSH20 0xFFFFFFFFFFFFFFFFFFFFFFFFFFFFFFFFFFFFFFFF AND EQ ISZERO JUMPDEST PUSH2 0x35F JUMPI PUSH1 0x40 MLOAD PUSH32 0x8C379A000000000000000000000000000000000000000000000000000000000 DUP2 MSTORE PUSH1 0x4 ADD PUSH2 0x356 SWAP1 PUSH2 0x1005 JUMP JUMPDEST PUSH1 0x40 MLOAD DUP1 SWAP2 SUB SWAP1 REVERT JUMPDEST PUSH2 0x369 DUP3 DUP9 PUSH2 0x754 JUMP JUMPDEST PUSH0 DUP8 SWAP1 POP PUSH0 PUSH0 SWAP1 POP JUMPDEST DUP11 DUP11 SWAP1 POP DUP2 LT ISZERO PUSH2 0x670 JUMPI CALLDATASIZE DUP12 DUP12 DUP4 DUP2 DUP2 LT PUSH2 0x391 JUMPI PUSH2 0x390 PUSH2 0xE6E JUMP JUMPDEST JUMPDEST SWAP1 POP PUSH1 0x20 MUL DUP2 ADD SWAP1 PUSH2 0x3A3 SWAP2 SWAP1 PUSH2 0xEA7 JUMP JUMPDEST SWAP1 POP PUSH0 PUSH20 0xFFFFFFFFFFFFFFFFFFFFFFFFFFFFFFFFFFFFFFFF AND DUP2 PUSH0 ADD PUSH1 0x20 DUP2 ADD SWAP1 PUSH2 0x3CE SWAP2 SWAP1 PUSH2 0xF30 JUMP JUMPDEST PUSH20 0xFFFFFFFFFFFFFFFFFFFFFFFFFFFFFFFFFFFFFFFF AND SUB PUSH2 0x424 JUMPI PUSH1 0x40 MLOAD PUSH32 0x8C379A000000000000000000000000000000000000000000000000000000000 DUP2 MSTORE PUSH1 0x4 ADD PUSH2 0x41B SWAP1 PUSH2 0x106D JUMP JUMPDEST PUSH1 0x40 MLOAD DUP1 SWAP2 SUB SWAP1 REVERT JUMPDEST PUSH1 0x2 DUP2 DUP1 PUSH1 0x20 ADD SWAP1 PUSH2 0x436 SWAP2 SWAP1 PUSH2 0xECE JUMP JUMPDEST SWAP1 POP LT ISZERO PUSH2 0x479 JUMPI PUSH1 0x40 MLOAD PUSH32 0x8C379A000000000000000000000000000000000000000000000000000000000 DUP2 MSTORE PUSH1 0x4 ADD PUSH2 0x470 SWAP1 PUSH2 0x10D5 JUMP JUMPDEST PUSH1 0x40 MLOAD DUP1 SWAP2 SUB SWAP1 REVERT JUMPDEST PUSH0 PUSH20 0xFFFFFFFFFFFFFFFFFFFFFFFFFFFFFFFFFFFFFFFF AND DUP2 DUP1 PUSH1 0x20 ADD SWAP1 PUSH2 0x4A0 SWAP2 SWAP1 PUSH2 0xECE JUMP JUMPDEST PUSH0 DUP2 DUP2 LT PUSH2 0x4B1 JUMPI PUSH2 0x4B0 PUSH2 0xE6E JUMP JUMPDEST JUMPDEST SWAP1 POP PUSH1 0x20 MUL ADD PUSH1 0x20 DUP2 ADD SWAP1 PUSH2 0x4C6 SWAP2 SWAP1 PUSH2 0xF30 JUMP JUMPDEST PUSH20 0xFFFFFFFFFFFFFFFFFFFFFFFFFFFFFFFFFFFFFFFF AND SUB PUSH2 0x51C JUMPI PUSH1 0x40 MLOAD PUSH32 0x8C379A000000000000000000000000000000000000000000000000000000000 DUP2 MSTORE PUSH1 0x4 ADD PUSH2 0x513 SWAP1 PUSH2 0x113D JUMP JUMPDEST PUSH1 0x40 MLOAD DUP1 SWAP2 SUB SWAP1 REVERT JUMPDEST PUSH2 0x56D DUP2 DUP1 PUSH1 0x20 ADD SWAP1 PUSH2 0x52F SWAP2 SWAP1 PUSH2 0xECE JUMP JUMPDEST PUSH0 DUP2 DUP2 LT PUSH2 0x540 JUMPI PUSH2 0x53F PUSH2 0xE6E JUMP JUMPDEST JUMPDEST SWAP1 POP PUSH1 0x20 MUL ADD PUSH1 0x20 DUP2 ADD SWAP1 PUSH2 0x555 SWAP2 SWAP1 PUSH2 0xF30 JUMP JUMPDEST DUP3 PUSH0 ADD PUSH1 0x20 DUP2 ADD SWAP1 PUSH2 0x567 SWAP2 SWAP1 PUSH2 0xF30 JUMP JUMPDEST DUP6 PUSH2 0x814 JUMP JUMPDEST PUSH0 PUSH1 0x1 DUP14 DUP14 SWAP1 POP PUSH2 0x57E SWAP2 SWAP1 PUSH2 0xF88 JUMP JUMPDEST DUP4 EQ PUSH2 0x58A JUMPI PUSH0 PUSH2 0x58C JUMP JUMPDEST DUP10 JUMPDEST SWAP1 POP PUSH0 DUP3 PUSH0 ADD PUSH1 0x20 DUP2 ADD SWAP1 PUSH2 0x5A1 SWAP2 SWAP1 PUSH2 0xF30 JUMP JUMPDEST PUSH20 0xFFFFFFFFFFFFFFFFFFFFFFFFFFFFFFFFFFFFFFFF AND PUSH4 0x38ED1739 DUP7 DUP5 DUP7 DUP1 PUSH1 0x20 ADD SWAP1 PUSH2 0x5CE SWAP2 SWAP1 PUSH2 0xECE JUMP JUMPDEST ADDRESS DUP16 PUSH1 0x40 MLOAD DUP8 PUSH4 0xFFFFFFFF AND PUSH1 0xE0 SHL DUP2 MSTORE PUSH1 0x4 ADD PUSH2 0x5F1 SWAP7 SWAP6 SWAP5 SWAP4 SWAP3 SWAP2 SWAP1 PUSH2 0x1226 JUMP JUMPDEST PUSH0 PUSH1 0x40 MLOAD DUP1 DUP4 SUB DUP2 PUSH0 DUP8 GAS CALL ISZERO DUP1 ISZERO PUSH2 0x60C JUMPI RETURNDATASIZE PUSH0 PUSH0 RETURNDATACOPY RETURNDATASIZE PUSH0 REVERT JUMPDEST POP POP POP POP PUSH1 0x40 MLOAD RETURNDATASIZE PUSH0 DUP3 RETURNDATACOPY RETURNDATASIZE PUSH1 0x1F NOT PUSH1 0x1F DUP3 ADD AND DUP3 ADD DUP1 PUSH1 0x40 MSTORE POP DUP2 ADD SWAP1 PUSH2 0x634 SWAP2 SWAP1 PUSH2 0x13DC JUMP JUMPDEST SWAP1 POP DUP1 PUSH1 0x1 DUP3 MLOAD PUSH2 0x645 SWAP2 SWAP1 PUSH2 0xF88 JUMP JUMPDEST DUP2 MLOAD DUP2 LT PUSH2 0x656 JUMPI PUSH2 0x655 PUSH2 0xE6E JUMP JUMPDEST JUMPDEST PUSH1 0x20 MUL PUSH1 0x20 ADD ADD MLOAD SWAP5 POP POP POP POP DUP1 DUP1 PUSH1 0x1 ADD SWAP2 POP POP PUSH2 0x372 JUMP JUMPDEST POP DUP7 DUP2 LT ISZERO PUSH2 0x6B4 JUMPI PUSH1 0x40 MLOAD PUSH32 0x8C379A000000000000000000000000000000000000000000000000000000000 DUP2 MSTORE PUSH1 0x4 ADD PUSH2 0x6AB SWAP1 PUSH2 0x146D JUMP JUMPDEST PUSH1 0x40 MLOAD DUP1 SWAP2 SUB SWAP1 REVERT JUMPDEST PUSH2 0x6BF DUP3 DUP8 DUP4 PUSH2 0xA42 JUMP JUMPDEST DUP2 PUSH20 0xFFFFFFFFFFFFFFFFFFFFFFFFFFFFFFFFFFFFFFFF AND DUP4 PUSH20 0xFFFFFFFFFFFFFFFFFFFFFFFFFFFFFFFFFFFFFFFF AND CALLER PUSH20 0xFFFFFFFFFFFFFFFFFFFFFFFFFFFFFFFFFFFFFFFF AND PUSH32 0x3C12E63576F8B0081BC2A4D0788543D8D1D3798BF70141B136D67435B0DAD64E DUP12 DUP6 PUSH1 0x40 MLOAD PUSH2 0x735 SWAP3 SWAP2 SWAP1 PUSH2 0x148B JUMP JUMPDEST PUSH1 0x40 MLOAD DUP1 SWAP2 SUB SWAP1 LOG4 DUP1 SWAP4 POP POP POP POP PUSH1 0x1 PUSH0 DUP2 SWAP1 SSTORE POP SWAP7 SWAP6 POP POP POP POP POP POP JUMP JUMPDEST DUP2 PUSH20 0xFFFFFFFFFFFFFFFFFFFFFFFFFFFFFFFFFFFFFFFF AND PUSH4 0x23B872DD CALLER ADDRESS DUP5 PUSH1 0x40 MLOAD DUP5 PUSH4 0xFFFFFFFF AND PUSH1 0xE0 SHL DUP2 MSTORE PUSH1 0x4 ADD PUSH2 0x791 SWAP4 SWAP3 SWAP2 SWAP1 PUSH2 0x14B2 JUMP JUMPDEST PUSH1 0x20 PUSH1 0x40 MLOAD DUP1 DUP4 SUB DUP2 PUSH0 DUP8 GAS CALL ISZERO DUP1 ISZERO PUSH2 0x7AD JUMPI RETURNDATASIZE PUSH0 PUSH0 RETURNDATACOPY RETURNDATASIZE PUSH0 REVERT JUMPDEST POP POP POP POP PUSH1 0x40 MLOAD RETURNDATASIZE PUSH1 0x1F NOT PUSH1 0x1F DUP3 ADD AND DUP3 ADD DUP1 PUSH1 0x40 MSTORE POP DUP2 ADD SWAP1 PUSH2 0x7D1 SWAP2 SWAP1 PUSH2 0x151C JUMP JUMPDEST PUSH2 0x810 JUMPI PUSH1 0x40 MLOAD PUSH32 0x8C379A000000000000000000000000000000000000000000000000000000000 DUP2 MSTORE PUSH1 0x4 ADD PUSH2 0x807 SWAP1 PUSH2 0x1591 JUMP JUMPDEST PUSH1 0x40 MLOAD DUP1 SWAP2 SUB SWAP1 REVERT JUMPDEST POP POP JUMP JUMPDEST PUSH0 DUP4 SWAP1 POP PUSH0 DUP2 PUSH20 0xFFFFFFFFFFFFFFFFFFFFFFFFFFFFFFFFFFFFFFFF AND PUSH4 0xDD62ED3E ADDRESS DUP7 PUSH1 0x40 MLOAD DUP4 PUSH4 0xFFFFFFFF AND PUSH1 0xE0 SHL DUP2 MSTORE PUSH1 0x4 ADD PUSH2 0x854 SWAP3 SWAP2 SWAP1 PUSH2 0x15AF JUMP JUMPDEST PUSH1 0x20 PUSH1 0x40 MLOAD DUP1 DUP4 SUB DUP2 DUP7 GAS STATICCALL ISZERO DUP1 ISZERO PUSH2 0x86F JUMPI RETURNDATASIZE PUSH0 PUSH0 RETURNDATACOPY RETURNDATASIZE PUSH0 REVERT JUMPDEST POP POP POP POP PUSH1 0x40 MLOAD RETURNDATASIZE PUSH1 0x1F NOT PUSH1 0x1F DUP3 ADD AND DUP3 ADD DUP1 PUSH1 0x40 MSTORE POP DUP2 ADD SWAP1 PUSH2 0x893 SWAP2 SWAP1 PUSH2 0x15D6 JUMP JUMPDEST SWAP1 POP DUP3 DUP2 LT ISZERO PUSH2 0xA3B JUMPI PUSH0 DUP2 GT ISZERO PUSH2 0x960 JUMPI DUP2 PUSH20 0xFFFFFFFFFFFFFFFFFFFFFFFFFFFFFFFFFFFFFFFF AND PUSH4 0x95EA7B3 DUP6 PUSH0 PUSH1 0x40 MLOAD DUP4 PUSH4 0xFFFFFFFF AND PUSH1 0xE0 SHL DUP2 MSTORE PUSH1 0x4 ADD PUSH2 0x8E0 SWAP3 SWAP2 SWAP1 PUSH2 0x1643 JUMP JUMPDEST PUSH1 0x20 PUSH1 0x40 MLOAD DUP1 DUP4 SUB DUP2 PUSH0 DUP8 GAS CALL ISZERO DUP1 ISZERO PUSH2 0x8FC JUMPI RETURNDATASIZE PUSH0 PUSH0 RETURNDATACOPY RETURNDATASIZE PUSH0 REVERT JUMPDEST POP POP POP POP PUSH1 0x40 MLOAD RETURNDATASIZE PUSH1 0x1F NOT PUSH1 0x1F DUP3 ADD AND DUP3 ADD DUP1 PUSH1 0x40 MSTORE POP DUP2 ADD SWAP1 PUSH2 0x920 SWAP2 SWAP1 PUSH2 0x151C JUMP JUMPDEST PUSH2 0x95F JUMPI PUSH1 0x40 MLOAD PUSH32 0x8C379A000000000000000000000000000000000000000000000000000000000 DUP2 MSTORE PUSH1 0x4 ADD PUSH2 0x956 SWAP1 PUSH2 0x16B4 JUMP JUMPDEST PUSH1 0x40 MLOAD DUP1 SWAP2 SUB SWAP1 REVERT JUMPDEST JUMPDEST DUP2 PUSH20 0xFFFFFFFFFFFFFFFFFFFFFFFFFFFFFFFFFFFFFFFF AND PUSH4 0x95EA7B3 DUP6 PUSH32 0xFFFFFFFFFFFFFFFFFFFFFFFFFFFFFFFFFFFFFFFFFFFFFFFFFFFFFFFFFFFFFFFF PUSH1 0x40 MLOAD DUP4 PUSH4 0xFFFFFFFF AND PUSH1 0xE0 SHL DUP2 MSTORE PUSH1 0x4 ADD PUSH2 0x9BB SWAP3 SWAP2 SWAP1 PUSH2 0x16D2 JUMP JUMPDEST PUSH1 0x20 PUSH1 0x40 MLOAD DUP1 DUP4 SUB DUP2 PUSH0 DUP8 GAS CALL ISZERO DUP1 ISZERO PUSH2 0x9D7 JUMPI RETURNDATASIZE PUSH0 PUSH0 RETURNDATACOPY RETURNDATASIZE PUSH0 REVERT JUMPDEST POP POP POP POP PUSH1 0x40 MLOAD RETURNDATASIZE PUSH1 0x1F NOT PUSH1 0x1F DUP3 ADD AND DUP3 ADD DUP1 PUSH1 0x40 MSTORE POP DUP2 ADD SWAP1 PUSH2 0x9FB SWAP2 SWAP1 PUSH2 0x151C JUMP JUMPDEST PUSH2 0xA3A JUMPI PUSH1 0x40 MLOAD PUSH32 0x8C379A000000000000000000000000000000000000000000000000000000000 DUP2 MSTORE PUSH1 0x4 ADD PUSH2 0xA31 SWAP1 PUSH2 0x1743 JUMP JUMPDEST PUSH1 0x40 MLOAD DUP1 SWAP2 SUB SWAP1 REVERT JUMPDEST JUMPDEST POP POP POP POP POP JUMP JUMPDEST DUP3 PUSH20 0xFFFFFFFFFFFFFFFFFFFFFFFFFFFFFFFFFFFFFFFF AND PUSH4 0xA9059CBB DUP4 DUP4 PUSH1 0x40 MLOAD DUP4 PUSH4 0xFFFFFFFF AND PUSH1 0xE0 SHL DUP2 MSTORE PUSH1 0x4 ADD PUSH2 0xA7D SWAP3 SWAP2 SWAP1 PUSH2 0x16D2 JUMP JUMPDEST PUSH1 0x20 PUSH1 0x40 MLOAD DUP1 DUP4 SUB DUP2 PUSH0 DUP8 GAS CALL ISZERO DUP1 ISZERO PUSH2 0xA99 JUMPI RETURNDATASIZE PUSH0 PUSH0 RETURNDATACOPY RETURNDATASIZE PUSH0 REVERT JUMPDEST POP POP POP POP PUSH1 0x40 MLOAD RETURNDATASIZE PUSH1 0x1F NOT PUSH1 0x1F DUP3 ADD AND DUP3 ADD DUP1 PUSH1 0x40 MSTORE POP DUP2 ADD SWAP1 PUSH2 0xABD SWAP2 SWAP1 PUSH2 0x151C JUMP JUMPDEST PUSH2 0xAFC JUMPI PUSH1 0x40 MLOAD PUSH32 0x8C379A000000000000000000000000000000000000000000000000000000000 DUP2 MSTORE PUSH1 0x4 ADD PUSH2 0xAF3 SWAP1 PUSH2 0x17AB JUMP JUMPDEST PUSH1 0x40 MLOAD DUP1 SWAP2 SUB SWAP1 REVERT JUMPDEST POP POP POP JUMP JUMPDEST PUSH0 PUSH1 0x40 MLOAD SWAP1 POP SWAP1 JUMP JUMPDEST PUSH0 PUSH0 REVERT JUMPDEST PUSH0 PUSH0 REVERT JUMPDEST PUSH0 PUSH0 REVERT JUMPDEST PUSH0 PUSH0 REVERT JUMPDEST PUSH0 PUSH0 REVERT JUMPDEST PUSH0 PUSH0 DUP4 PUSH1 0x1F DUP5 ADD SLT PUSH2 0xB33 JUMPI PUSH2 0xB32 PUSH2 0xB12 JUMP JUMPDEST JUMPDEST DUP3 CALLDATALOAD SWAP1 POP PUSH8 0xFFFFFFFFFFFFFFFF DUP2 GT ISZERO PUSH2 0xB50 JUMPI PUSH2 0xB4F PUSH2 0xB16 JUMP JUMPDEST JUMPDEST PUSH1 0x20 DUP4 ADD SWAP2 POP DUP4 PUSH1 0x20 DUP3 MUL DUP4 ADD GT ISZERO PUSH2 0xB6C JUMPI PUSH2 0xB6B PUSH2 0xB1A JUMP JUMPDEST JUMPDEST SWAP3 POP SWAP3 SWAP1 POP JUMP JUMPDEST PUSH0 DUP2 SWAP1 POP SWAP2 SWAP1 POP JUMP JUMPDEST PUSH2 0xB85 DUP2 PUSH2 0xB73 JUMP JUMPDEST DUP2 EQ PUSH2 0xB8F JUMPI PUSH0 PUSH0 REVERT JUMPDEST POP JUMP JUMPDEST PUSH0 DUP2 CALLDATALOAD SWAP1 POP PUSH2 0xBA0 DUP2 PUSH2 0xB7C JUMP JUMPDEST SWAP3 SWAP2 POP POP JUMP JUMPDEST PUSH0 PUSH20 0xFFFFFFFFFFFFFFFFFFFFFFFFFFFFFFFFFFFFFFFF DUP3 AND SWAP1 POP SWAP2 SWAP1 POP JUMP JUMPDEST PUSH0 PUSH2 0xBCF DUP3 PUSH2 0xBA6 JUMP JUMPDEST SWAP1 POP SWAP2 SWAP1 POP JUMP JUMPDEST PUSH2 0xBDF DUP2 PUSH2 0xBC5 JUMP JUMPDEST DUP2 EQ PUSH2 0xBE9 JUMPI PUSH0 PUSH0 REVERT JUMPDEST POP JUMP JUMPDEST PUSH0 DUP2 CALLDATALOAD SWAP1 POP PUSH2 0xBFA DUP2 PUSH2 0xBD6 JUMP JUMPDEST SWAP3 SWAP2 POP POP JUMP JUMPDEST PUSH0 PUSH0 PUSH0 PUSH0 PUSH0 PUSH0 PUSH1 0xA0 DUP8 DUP10 SUB SLT ISZERO PUSH2 0xC1A JUMPI PUSH2 0xC19 PUSH2 0xB0A JUMP JUMPDEST JUMPDEST PUSH0 DUP8 ADD CALLDATALOAD PUSH8 0xFFFFFFFFFFFFFFFF DUP2 GT ISZERO PUSH2 0xC37 JUMPI PUSH2 0xC36 PUSH2 0xB0E JUMP JUMPDEST JUMPDEST PUSH2 0xC43 DUP10 DUP3 DUP11 ADD PUSH2 0xB1E JUMP JUMPDEST SWAP7 POP SWAP7 POP POP PUSH1 0x20 PUSH2 0xC56 DUP10 DUP3 DUP11 ADD PUSH2 0xB92 JUMP JUMPDEST SWAP5 POP POP PUSH1 0x40 PUSH2 0xC67 DUP10 DUP3 DUP11 ADD PUSH2 0xB92 JUMP JUMPDEST SWAP4 POP POP PUSH1 0x60 PUSH2 0xC78 DUP10 DUP3 DUP11 ADD PUSH2 0xBEC JUMP JUMPDEST SWAP3 POP POP PUSH1 0x80 PUSH2 0xC89 DUP10 DUP3 DUP11 ADD PUSH2 0xB92 JUMP JUMPDEST SWAP2 POP POP SWAP3 SWAP6 POP SWAP3 SWAP6 POP SWAP3 SWAP6 JUMP JUMPDEST PUSH2 0xC9F DUP2 PUSH2 0xB73 JUMP JUMPDEST DUP3 MSTORE POP POP JUMP JUMPDEST PUSH0 PUSH1 0x20 DUP3 ADD SWAP1 POP PUSH2 0xCB8 PUSH0 DUP4 ADD DUP5 PUSH2 0xC96 JUMP JUMPDEST SWAP3 SWAP2 POP POP JUMP JUMPDEST PUSH0 DUP3 DUP3 MSTORE PUSH1 0x20 DUP3 ADD SWAP1 POP SWAP3 SWAP2 POP POP JUMP JUMPDEST PUSH32 0x4C4F434B45440000000000000000000000000000000000000000000000000000 PUSH0 DUP3 ADD MSTORE POP JUMP JUMPDEST PUSH0 PUSH2 0xD02 PUSH1 0x6 DUP4 PUSH2 0xCBE JUMP JUMPDEST SWAP2 POP PUSH2 0xD0D DUP3 PUSH2 0xCCE JUMP JUMPDEST PUSH1 0x20 DUP3 ADD SWAP1 POP SWAP2 SWAP1 POP JUMP JUMPDEST PUSH0 PUSH1 0x20 DUP3 ADD SWAP1 POP DUP2 DUP2 SUB PUSH0 DUP4 ADD MSTORE PUSH2 0xD2F DUP2 PUSH2 0xCF6 JUMP JUMPDEST SWAP1 POP SWAP2 SWAP1 POP JUMP JUMPDEST PUSH32 0x4E4F5F484F505300000000000000000000000000000000000000000000000000 PUSH0 DUP3 ADD MSTORE POP JUMP JUMPDEST PUSH0 PUSH2 0xD6A PUSH1 0x7 DUP4 PUSH2 0xCBE JUMP JUMPDEST SWAP2 POP PUSH2 0xD75 DUP3 PUSH2 0xD36 JUMP JUMPDEST PUSH1 0x20 DUP3 ADD SWAP1 POP SWAP2 SWAP1 POP JUMP JUMPDEST PUSH0 PUSH1 0x20 DUP3 ADD SWAP1 POP DUP2 DUP2 SUB PUSH0 DUP4 ADD MSTORE PUSH2 0xD97 DUP2 PUSH2 0xD5E JUMP JUMPDEST SWAP1 POP SWAP2 SWAP1 POP JUMP JUMPDEST PUSH32 0x4241445F524543495049454E5400000000000000000000000000000000000000 PUSH0 DUP3 ADD MSTORE POP JUMP JUMPDEST PUSH0 PUSH2 0xDD2 PUSH1 0xD DUP4 PUSH2 0xCBE JUMP JUMPDEST SWAP2 POP PUSH2 0xDDD DUP3 PUSH2 0xD9E JUMP JUMPDEST PUSH1 0x20 DUP3 ADD SWAP1 POP SWAP2 SWAP1 POP JUMP JUMPDEST PUSH0 PUSH1 0x20 DUP3 ADD SWAP1 POP DUP2 DUP2 SUB PUSH0 DUP4 ADD MSTORE PUSH2 0xDFF DUP2 PUSH2 0xDC6 JUMP JUMPDEST SWAP1 POP SWAP2 SWAP1 POP JUMP JUMPDEST PUSH32 0x444541444C494E455F5041535345440000000000000000000000000000000000 PUSH0 DUP3 ADD MSTORE POP JUMP JUMPDEST PUSH0 PUSH2 0xE3A PUSH1 0xF DUP4 PUSH2 0xCBE JUMP JUMPDEST SWAP2 POP PUSH2 0xE45 DUP3 PUSH2 0xE06 JUMP JUMPDEST PUSH1 0x20 DUP3 ADD SWAP1 POP SWAP2 SWAP1 POP JUMP JUMPDEST PUSH0 PUSH1 0x20 DUP3 ADD SWAP1 POP DUP2 DUP2 SUB PUSH0 DUP4 ADD MSTORE PUSH2 0xE67 DUP2 PUSH2 0xE2E JUMP JUMPDEST SWAP1 POP SWAP2 SWAP1 POP JUMP JUMPDEST PUSH32 0x4E487B7100000000000000000000000000000000000000000000000000000000 PUSH0 MSTORE PUSH1 0x32 PUSH1 0x4 MSTORE PUSH1 0x24 PUSH0 REVERT JUMPDEST PUSH0 PUSH0 REVERT JUMPDEST PUSH0 PUSH0 REVERT JUMPDEST PUSH0 PUSH0 REVERT JUMPDEST PUSH0 DUP3 CALLDATALOAD PUSH1 0x1 PUSH1 0x40 SUB DUP4 CALLDATASIZE SUB SUB DUP2 SLT PUSH2 0xEC2 JUMPI PUSH2 0xEC1 PUSH2 0xE9B JUMP JUMPDEST JUMPDEST DUP1 DUP4 ADD SWAP2 POP POP SWAP3 SWAP2 POP POP JUMP JUMPDEST PUSH0 PUSH0 DUP4 CALLDATALOAD PUSH1 0x1 PUSH1 0x20 SUB DUP5 CALLDATASIZE SUB SUB DUP2 SLT PUSH2 0xEEA JUMPI PUSH2 0xEE9 PUSH2 0xE9B JUMP JUMPDEST JUMPDEST DUP1 DUP5 ADD SWAP3 POP DUP3 CALLDATALOAD SWAP2 POP PUSH8 0xFFFFFFFFFFFFFFFF DUP3 GT ISZERO PUSH2 0xF0C JUMPI PUSH2 0xF0B PUSH2 0xE9F JUMP JUMPDEST JUMPDEST PUSH1 0x20 DUP4 ADD SWAP3 POP PUSH1 0x20 DUP3 MUL CALLDATASIZE SUB DUP4 SGT ISZERO PUSH2 0xF28 JUMPI PUSH2 0xF27 PUSH2 0xEA3 JUMP JUMPDEST JUMPDEST POP SWAP3 POP SWAP3 SWAP1 POP JUMP JUMPDEST PUSH0 PUSH1 0x20 DUP3 DUP5 SUB SLT ISZERO PUSH2 0xF45 JUMPI PUSH2 0xF44 PUSH2 0xB0A JUMP JUMPDEST JUMPDEST PUSH0 PUSH2 0xF52 DUP5 DUP3 DUP6 ADD PUSH2 0xBEC JUMP JUMPDEST SWAP2 POP POP SWAP3 SWAP2 POP POP JUMP JUMPDEST PUSH32 0x4E487B7100000000000000000000000000000000000000000000000000000000 PUSH0 MSTORE PUSH1 0x11 PUSH1 0x4 MSTORE PUSH1 0x24 PUSH0 REVERT JUMPDEST PUSH0 PUSH2 0xF92 DUP3 PUSH2 0xB73 JUMP JUMPDEST SWAP2 POP PUSH2 0xF9D DUP4 PUSH2 0xB73 JUMP JUMPDEST SWAP3 POP DUP3 DUP3 SUB SWAP1 POP DUP2 DUP2 GT ISZERO PUSH2 0xFB5 JUMPI PUSH2 0xFB4 PUSH2 0xF5B JUMP JUMPDEST JUMPDEST SWAP3 SWAP2 POP POP JUMP JUMPDEST PUSH32 0x4241445F50415448000000000000000000000000000000000000000000000000 PUSH0 DUP3 ADD MSTORE POP JUMP JUMPDEST PUSH0 PUSH2 0xFEF PUSH1 0x8 DUP4 PUSH2 0xCBE JUMP JUMPDEST SWAP2 POP PUSH2 0xFFA DUP3 PUSH2 0xFBB JUMP JUMPDEST PUSH1 0x20 DUP3 ADD SWAP1 POP SWAP2 SWAP1 POP JUMP JUMPDEST PUSH0 PUSH1 0x20 DUP3 ADD SWAP1 POP DUP2 DUP2 SUB PUSH0 DUP4 ADD MSTORE PUSH2 0x101C DUP2 PUSH2 0xFE3 JUMP JUMPDEST SWAP1 POP SWAP2 SWAP1 POP JUMP JUMPDEST PUSH32 0x4241445F524F5554455200000000000000000000000000000000000000000000 PUSH0 DUP3 ADD MSTORE POP JUMP JUMPDEST PUSH0 PUSH2 0x1057 PUSH1 0xA DUP4 PUSH2 0xCBE JUMP JUMPDEST SWAP2 POP PUSH2 0x1062 DUP3 PUSH2 0x1023 JUMP JUMPDEST PUSH1 0x20 DUP3 ADD SWAP1 POP SWAP2 SWAP1 POP JUMP JUMPDEST PUSH0 PUSH1 0x20 DUP3 ADD SWAP1 POP DUP2 DUP2 SUB PUSH0 DUP4 ADD MSTORE PUSH2 0x1084 DUP2 PUSH2 0x104B JUMP JUMPDEST SWAP1 POP SWAP2 SWAP1 POP JUMP JUMPDEST PUSH32 0x53484F52545F5041544800000000000000000000000000000000000000000000 PUSH0 DUP3 ADD MSTORE POP JUMP JUMPDEST PUSH0 PUSH2 0x10BF PUSH1 0xA DUP4 PUSH2 0xCBE JUMP JUMPDEST SWAP2 POP PUSH2 0x10CA DUP3 PUSH2 0x108B JUMP JUMPDEST PUSH1 0x20 DUP3 ADD SWAP1 POP SWAP2 SWAP1 POP JUMP JUMPDEST PUSH0 PUSH1 0x20 DUP3 ADD SWAP1 POP DUP2 DUP2 SUB PUSH0 DUP4 ADD MSTORE PUSH2 0x10EC DUP2 PUSH2 0x10B3 JUMP JUMPDEST SWAP1 POP SWAP2 SWAP1 POP JUMP JUMPDEST PUSH32 0x4241445F494E5055540000000000000000000000000000000000000000000000 PUSH0 DUP3 ADD MSTORE POP JUMP JUMPDEST PUSH0 PUSH2 0x1127 PUSH1 0x9 DUP4 PUSH2 0xCBE JUMP JUMPDEST SWAP2 POP PUSH2 0x1132 DUP3 PUSH2 0x10F3 JUMP JUMPDEST PUSH1 0x20 DUP3 ADD SWAP1 POP SWAP2 SWAP1 POP JUMP JUMPDEST PUSH0 PUSH1 0x20 DUP3 ADD SWAP1 POP DUP2 DUP2 SUB PUSH0 DUP4 ADD MSTORE PUSH2 0x1154 DUP2 PUSH2 0x111B JUMP JUMPDEST SWAP1 POP SWAP2 SWAP1 POP JUMP JUMPDEST PUSH0 DUP3 DUP3 MSTORE PUSH1 0x20 DUP3 ADD SWAP1 POP SWAP3 SWAP2 POP POP JUMP JUMPDEST PUSH0 DUP2 SWAP1 POP SWAP2 SWAP1 POP JUMP JUMPDEST PUSH2 0x117D DUP2 PUSH2 0xBC5 JUMP JUMPDEST DUP3 MSTORE POP POP JUMP JUMPDEST PUSH0 PUSH2 0x118E DUP4 DUP4 PUSH2 0x1174 JUMP JUMPDEST PUSH1 0x20 DUP4 ADD SWAP1 POP SWAP3 SWAP2 POP POP JUMP JUMPDEST PUSH0 PUSH2 0x11A8 PUSH1 0x20 DUP5 ADD DUP5 PUSH2 0xBEC JUMP JUMPDEST SWAP1 POP SWAP3 SWAP2 POP POP JUMP JUMPDEST PUSH0 PUSH1 0x20 DUP3 ADD SWAP1 POP SWAP2 SWAP1 POP JUMP JUMPDEST PUSH0 PUSH2 0x11C7 DUP4 DUP6 PUSH2 0x115B JUMP JUMPDEST SWAP4 POP PUSH2 0x11D2 DUP3 PUSH2 0x116B JUMP JUMPDEST DUP1 PUSH0 JUMPDEST DUP6 DUP2 LT ISZERO PUSH2 0x120A JUMPI PUSH2 0x11E7 DUP3 DUP5 PUSH2 0x119A JUMP JUMPDEST PUSH2 0x11F1 DUP9 DUP3 PUSH2 0x1183 JUMP JUMPDEST SWAP8 POP PUSH2 0x11FC DUP4 PUSH2 0x11B0 JUMP JUMPDEST SWAP3 POP POP PUSH1 0x1 DUP2 ADD SWAP1 POP PUSH2 0x11D5 JUMP JUMPDEST POP DUP6 SWAP3 POP POP POP SWAP4 SWAP3 POP POP POP JUMP JUMPDEST PUSH2 0x1220 DUP2 PUSH2 0xBC5 JUMP JUMPDEST DUP3 MSTORE POP POP JUMP JUMPDEST PUSH0 PUSH1 0xA0 DUP3 ADD SWAP1 POP PUSH2 0x1239 PUSH0 DUP4 ADD DUP10 PUSH2 0xC96 JUMP JUMPDEST PUSH2 0x1246 PUSH1 0x20 DUP4 ADD DUP9 PUSH2 0xC96 JUMP JUMPDEST DUP2 DUP2 SUB PUSH1 0x40 DUP4 ADD MSTORE PUSH2 0x1259 DUP2 DUP7 DUP9 PUSH2 0x11BC JUMP JUMPDEST SWAP1 POP PUSH2 0x1268 PUSH1 0x60 DUP4 ADD DUP6 PUSH2 0x1217 JUMP JUMPDEST PUSH2 0x1275 PUSH1 0x80 DUP4 ADD DUP5 PUSH2 0xC96 JUMP JUMPDEST SWAP8 SWAP7 POP POP POP POP POP POP POP JUMP JUMPDEST PUSH0 PUSH1 0x1F NOT PUSH1 0x1F DUP4 ADD AND SWAP1 POP SWAP2 SWAP1 POP JUMP JUMPDEST PUSH32 0x4E487B7100000000000000000000000000000000000000000000000000000000 PUSH0 MSTORE PUSH1 0x41 PUSH1 0x4 MSTORE PUSH1 0x24 PUSH0 REVERT JUMPDEST PUSH2 0x12C6 DUP3 PUSH2 0x1280 JUMP JUMPDEST DUP2 ADD DUP2 DUP2 LT PUSH8 0xFFFFFFFFFFFFFFFF DUP3 GT OR ISZERO PUSH2 0x12E5 JUMPI PUSH2 0x12E4 PUSH2 0x1290 JUMP JUMPDEST JUMPDEST DUP1 PUSH1 0x40 MSTORE POP POP POP JUMP JUMPDEST PUSH0 PUSH2 0x12F7 PUSH2 0xB01 JUMP JUMPDEST SWAP1 POP PUSH2 0x1303 DUP3 DUP3 PUSH2 0x12BD JUMP JUMPDEST SWAP2 SWAP1 POP JUMP JUMPDEST PUSH0 PUSH8 0xFFFFFFFFFFFFFFFF DUP3 GT ISZERO PUSH2 0x1322 JUMPI PUSH2 0x1321 PUSH2 0x1290 JUMP JUMPDEST JUMPDEST PUSH1 0x20 DUP3 MUL SWAP1 POP PUSH1 0x20 DUP2 ADD SWAP1 POP SWAP2 SWAP1 POP JUMP JUMPDEST PUSH0 DUP2 MLOAD SWAP1 POP PUSH2 0x1341 DUP2 PUSH2 0xB7C JUMP JUMPDEST SWAP3 SWAP2 POP POP JUMP JUMPDEST PUSH0 PUSH2 0x1359 PUSH2 0x1354 DUP5 PUSH2 0x1308 JUMP JUMPDEST PUSH2 0x12EE JUMP JUMPDEST SWAP1 POP DUP1 DUP4 DUP3 MSTORE PUSH1 0x20 DUP3 ADD SWAP1 POP PUSH1 0x20 DUP5 MUL DUP4 ADD DUP6 DUP2 GT ISZERO PUSH2 0x137C JUMPI PUSH2 0x137B PUSH2 0xB1A JUMP JUMPDEST JUMPDEST DUP4 JUMPDEST DUP2 DUP2 LT ISZERO PUSH2 0x13A5 JUMPI DUP1 PUSH2 0x1391 DUP9 DUP3 PUSH2 0x1333 JUMP JUMPDEST DUP5 MSTORE PUSH1 0x20 DUP5 ADD SWAP4 POP POP PUSH1 0x20 DUP2 ADD SWAP1 POP PUSH2 0x137E JUMP JUMPDEST POP POP POP SWAP4 SWAP3 POP POP POP JUMP JUMPDEST PUSH0 DUP3 PUSH1 0x1F DUP4 ADD SLT PUSH2 0x13C3 JUMPI PUSH2 0x13C2 PUSH2 0xB12 JUMP JUMPDEST JUMPDEST DUP2 MLOAD PUSH2 0x13D3 DUP5 DUP3 PUSH1 0x20 DUP7 ADD PUSH2 0x1347 JUMP JUMPDEST SWAP2 POP POP SWAP3 SWAP2 POP POP JUMP JUMPDEST PUSH0 PUSH1 0x20 DUP3 DUP5 SUB SLT ISZERO PUSH2 0x13F1 JUMPI PUSH2 0x13F0 PUSH2 0xB0A JUMP JUMPDEST JUMPDEST PUSH0 DUP3 ADD MLOAD PUSH8 0xFFFFFFFFFFFFFFFF DUP2 GT ISZERO PUSH2 0x140E JUMPI PUSH2 0x140D PUSH2 0xB0E JUMP JUMPDEST JUMPDEST PUSH2 0x141A DUP5 DUP3 DUP6 ADD PUSH2 0x13AF JUMP JUMPDEST SWAP2 POP POP SWAP3 SWAP2 POP POP JUMP JUMPDEST PUSH32 0x494E53554646494349454E545F4F555450555400000000000000000000000000 PUSH0 DUP3 ADD MSTORE POP JUMP JUMPDEST PUSH0 PUSH2 0x1457 PUSH1 0x13 DUP4 PUSH2 0xCBE JUMP JUMPDEST SWAP2 POP PUSH2 0x1462 DUP3 PUSH2 0x1423 JUMP JUMPDEST PUSH1 0x20 DUP3 ADD SWAP1 POP SWAP2 SWAP1 POP JUMP JUMPDEST PUSH0 PUSH1 0x20 DUP3 ADD SWAP1 POP DUP2 DUP2 SUB PUSH0 DUP4 ADD MSTORE PUSH2 0x1484 DUP2 PUSH2 0x144B JUMP JUMPDEST SWAP1 POP SWAP2 SWAP1 POP JUMP JUMPDEST PUSH0 PUSH1 0x40 DUP3 ADD SWAP1 POP PUSH2 0x149E PUSH0 DUP4 ADD DUP6 PUSH2 0xC96 JUMP JUMPDEST PUSH2 0x14AB PUSH1 0x20 DUP4 ADD DUP5 PUSH2 0xC96 JUMP JUMPDEST SWAP4 SWAP3 POP POP POP JUMP JUMPDEST PUSH0 PUSH1 0x60 DUP3 ADD SWAP1 POP PUSH2 0x14C5 PUSH0 DUP4 ADD DUP7 PUSH2 0x1217 JUMP JUMPDEST PUSH2 0x14D2 PUSH1 0x20 DUP4 ADD DUP6 PUSH2 0x1217 JUMP JUMPDEST PUSH2 0x14DF PUSH1 0x40 DUP4 ADD DUP5 PUSH2 0xC96 JUMP JUMPDEST SWAP5 SWAP4 POP POP POP POP JUMP JUMPDEST PUSH0 DUP2 ISZERO ISZERO SWAP1 POP SWAP2 SWAP1 POP JUMP JUMPDEST PUSH2 0x14FB DUP2 PUSH2 0x14E7 JUMP JUMPDEST DUP2 EQ PUSH2 0x1505 JUMPI PUSH0 PUSH0 REVERT JUMPDEST POP JUMP JUMPDEST PUSH0 DUP2 MLOAD SWAP1 POP PUSH2 0x1516 DUP2 PUSH2 0x14F2 JUMP JUMPDEST SWAP3 SWAP2 POP POP JUMP JUMPDEST PUSH0 PUSH1 0x20 DUP3 DUP5 SUB SLT ISZERO PUSH2 0x1531 JUMPI PUSH2 0x1530 PUSH2 0xB0A JUMP JUMPDEST JUMPDEST PUSH0 PUSH2 0x153E DUP5 DUP3 DUP6 ADD PUSH2 0x1508 JUMP JUMPDEST SWAP2 POP POP SWAP3 SWAP2 POP POP JUMP JUMPDEST PUSH32 0x5452414E534645525F494E5F4641494C00000000000000000000000000000000 PUSH0 DUP3 ADD MSTORE POP JUMP JUMPDEST PUSH0 PUSH2 0x157B PUSH1 0x10 DUP4 PUSH2 0xCBE JUMP JUMPDEST SWAP2 POP PUSH2 0x1586 DUP3 PUSH2 0x1547 JUMP JUMPDEST PUSH1 0x20 DUP3 ADD SWAP1 POP SWAP2 SWAP1 POP JUMP JUMPDEST PUSH0 PUSH1 0x20 DUP3 ADD SWAP1 POP DUP2 DUP2 SUB PUSH0 DUP4 ADD MSTORE PUSH2 0x15A8 DUP2 PUSH2 0x156F JUMP JUMPDEST SWAP1 POP SWAP2 SWAP1 POP JUMP JUMPDEST PUSH0 PUSH1 0x40 DUP3 ADD SWAP1 POP PUSH2 0x15C2 PUSH0 DUP4 ADD DUP6 PUSH2 0x1217 JUMP JUMPDEST PUSH2 0x15CF PUSH1 0x20 DUP4 ADD DUP5 PUSH2 0x1217 JUMP JUMPDEST SWAP4 SWAP3 POP POP POP JUMP JUMPDEST PUSH0 PUSH1 0x20 DUP3 DUP5 SUB SLT ISZERO PUSH2 0x15EB JUMPI PUSH2 0x15EA PUSH2 0xB0A JUMP JUMPDEST JUMPDEST PUSH0 PUSH2 0x15F8 DUP5 DUP3 DUP6 ADD PUSH2 0x1333 JUMP JUMPDEST SWAP2 POP POP SWAP3 SWAP2 POP POP JUMP JUMPDEST PUSH0 DUP2 SWAP1 POP SWAP2 SWAP1 POP JUMP JUMPDEST PUSH0 DUP2 SWAP1 POP SWAP2 SWAP1 POP JUMP JUMPDEST PUSH0 PUSH2 0x162D PUSH2 0x1628 PUSH2 0x1623 DUP5 PUSH2 0x1601 JUMP JUMPDEST PUSH2 0x160A JUMP JUMPDEST PUSH2 0xB73 JUMP JUMPDEST SWAP1 POP SWAP2 SWAP1 POP JUMP JUMPDEST PUSH2 0x163D DUP2 PUSH2 0x1613 JUMP JUMPDEST DUP3 MSTORE POP POP JUMP JUMPDEST PUSH0 PUSH1 0x40 DUP3 ADD SWAP1 POP PUSH2 0x1656 PUSH0 DUP4 ADD DUP6 PUSH2 0x1217 JUMP JUMPDEST PUSH2 0x1663 PUSH1 0x20 DUP4 ADD DUP5 PUSH2 0x1634 JUMP JUMPDEST SWAP4 SWAP3 POP POP POP JUMP JUMPDEST PUSH32 0x415050524F56455F52455345545F4641494C0000000000000000000000000000 PUSH0 DUP3 ADD MSTORE POP JUMP JUMPDEST PUSH0 PUSH2 0x169E PUSH1 0x12 DUP4 PUSH2 0xCBE JUMP JUMPDEST SWAP2 POP PUSH2 0x16A9 DUP3 PUSH2 0x166A JUMP JUMPDEST PUSH1 0x20 DUP3 ADD SWAP1 POP SWAP2 SWAP1 POP JUMP JUMPDEST PUSH0 PUSH1 0x20 DUP3 ADD SWAP1 POP DUP2 DUP2 SUB PUSH0 DUP4 ADD MSTORE PUSH2 0x16CB DUP2 PUSH2 0x1692 JUMP JUMPDEST SWAP1 POP SWAP2 SWAP1 POP JUMP JUMPDEST PUSH0 PUSH1 0x40 DUP3 ADD SWAP1 POP PUSH2 0x16E5 PUSH0 DUP4 ADD DUP6 PUSH2 0x1217 JUMP JUMPDEST PUSH2 0x16F2 PUSH1 0x20 DUP4 ADD DUP5 PUSH2 0xC96 JUMP JUMPDEST SWAP4 SWAP3 POP POP POP JUMP JUMPDEST PUSH32 0x415050524F56455F4641494C0000000000000000000000000000000000000000 PUSH0 DUP3 ADD MSTORE POP JUMP JUMPDEST PUSH0 PUSH2 0x172D PUSH1 0xC DUP4 PUSH2 0xCBE JUMP JUMPDEST SWAP2 POP PUSH2 0x1738 DUP3 PUSH2 0x16F9 JUMP JUMPDEST PUSH1 0x20 DUP3 ADD SWAP1 POP SWAP2 SWAP1 POP JUMP JUMPDEST PUSH0 PUSH1 0x20 DUP3 ADD SWAP1 POP DUP2 DUP2 SUB PUSH0 DUP4 ADD MSTORE PUSH2 0x175A DUP2 PUSH2 0x1721 JUMP JUMPDEST SWAP1 POP SWAP2 SWAP1 POP JUMP JUMPDEST PUSH32 0x5452414E534645525F4F55545F4641494C000000000000000000000000000000 PUSH0 DUP3 ADD MSTORE POP JUMP JUMPDEST PUSH0 PUSH2 0x1795 PUSH1 0x11 DUP4 PUSH2 0xCBE JUMP JUMPDEST SWAP2 POP PUSH2 0x17A0 DUP3 PUSH2 0x1761 JUMP JUMPDEST PUSH1 0x20 DUP3 ADD SWAP1 POP SWAP2 SWAP1 POP JUMP JUMPDEST PUSH0 PUSH1 0x20 DUP3 ADD SWAP1 POP DUP2 DUP2 SUB PUSH0 DUP4 ADD MSTORE PUSH2 0x17C2 DUP2 PUSH2 0x1789 JUMP JUMPDEST SWAP1 POP SWAP2 SWAP1 POP JUMP INVALID LOG2 PUSH5 0x6970667358 0x22 SLT KECCAK256 SDIV MSIZE 0x27 0xB1 PUSH7 0x6CE36628CCEA6 0x4B 0xAA 0xB8 0x2A CALLCODE LOG4 0x24 0xE4 0xA6 0xDD CALL 0xED 0xBC 0xB0 TSTORE 0xD3 0xA6 REVERT LOG0 0xAB PUSH5 0x736F6C6343 STOP ADDMOD SHR STOP CALLER "},"methodIdentifiers":{"swapExactTokensForTokens((address,address[])[],uint256,uint256,address,uint256)":"c812ad39"}}}}}